{
  "contractName": "charity",
  "abi": [
    {
      "constant": true,
      "inputs": [],
      "name": "blockchain_count",
      "outputs": [
        {
          "name": "",
          "type": "uint256"
        }
      ],
      "payable": false,
      "stateMutability": "view",
      "type": "function"
    },
    {
      "constant": true,
      "inputs": [
        {
          "name": "",
          "type": "uint256"
        }
      ],
      "name": "charitys",
      "outputs": [
        {
          "name": "name",
          "type": "string"
        },
        {
          "name": "description",
          "type": "string"
        },
        {
          "name": "bankAccount",
          "type": "string"
        },
        {
          "name": "bankName",
          "type": "string"
        },
        {
          "name": "id",
          "type": "uint256"
        },
        {
          "name": "hash",
          "type": "bytes32"
        },
        {
          "name": "address_of_charity",
          "type": "string"
        },
        {
          "name": "ether_coins",
          "type": "string"
        }
      ],
      "payable": false,
      "stateMutability": "view",
      "type": "function"
    },
    {
      "constant": true,
      "inputs": [
        {
          "name": "",
          "type": "uint256"
        }
      ],
      "name": "org",
      "outputs": [
        {
          "name": "name",
          "type": "string"
        },
        {
          "name": "bankAccount",
          "type": "string"
        },
        {
          "name": "bankName",
          "type": "string"
        },
        {
          "name": "id",
          "type": "uint256"
        },
        {
          "name": "hash",
          "type": "bytes32"
        },
        {
          "name": "address_of_organisation",
          "type": "string"
        },
        {
          "name": "ether_coins",
          "type": "string"
        }
      ],
      "payable": false,
      "stateMutability": "view",
      "type": "function"
    },
    {
      "constant": true,
      "inputs": [
        {
          "name": "",
          "type": "uint256"
        }
      ],
      "name": "Blockchain",
      "outputs": [
        {
          "name": "nonce",
          "type": "uint256"
        },
        {
          "name": "data",
          "type": "bytes"
        },
        {
          "name": "transaction_hash_add",
          "type": "bytes32"
        },
        {
          "name": "blockNumber",
          "type": "uint256"
        },
        {
          "name": "hash",
          "type": "bytes32"
        },
        {
          "name": "previous_hash",
          "type": "bytes32"
        }
      ],
      "payable": false,
      "stateMutability": "view",
      "type": "function"
    },
    {
      "constant": true,
      "inputs": [],
      "name": "charity_count",
      "outputs": [
        {
          "name": "",
          "type": "uint256"
        }
      ],
      "payable": false,
      "stateMutability": "view",
      "type": "function"
    },
    {
      "constant": true,
      "inputs": [
        {
          "name": "",
          "type": "uint256"
        }
      ],
      "name": "transaction_dict",
      "outputs": [
        {
          "name": "address_of_charity",
          "type": "string"
        },
        {
          "name": "address_of_organisation",
          "type": "string"
        },
        {
          "name": "amount_sent",
          "type": "string"
        },
        {
          "name": "id",
          "type": "uint256"
        },
        {
          "name": "transaction_hash",
          "type": "bytes32"
        }
      ],
      "payable": false,
      "stateMutability": "view",
      "type": "function"
    },
    {
      "constant": true,
      "inputs": [],
      "name": "org_count",
      "outputs": [
        {
          "name": "",
          "type": "uint256"
        }
      ],
      "payable": false,
      "stateMutability": "view",
      "type": "function"
    },
    {
      "constant": true,
      "inputs": [],
      "name": "transaction_count",
      "outputs": [
        {
          "name": "",
          "type": "uint256"
        }
      ],
      "payable": false,
      "stateMutability": "view",
      "type": "function"
    },
    {
      "inputs": [],
      "payable": false,
      "stateMutability": "nonpayable",
      "type": "constructor"
    },
    {
      "constant": false,
      "inputs": [
        {
          "name": "_name",
          "type": "string"
        },
        {
          "name": "_description",
          "type": "string"
        },
        {
          "name": "_bankacc",
          "type": "string"
        },
        {
          "name": "_bankname",
          "type": "string"
        },
        {
          "name": "_address",
          "type": "string"
        },
        {
          "name": "_ether_coins",
          "type": "string"
        }
      ],
      "name": "createCharity",
      "outputs": [
        {
          "name": "",
          "type": "uint256"
        }
      ],
      "payable": false,
      "stateMutability": "nonpayable",
      "type": "function"
    },
    {
      "constant": false,
      "inputs": [
        {
          "name": "_name",
          "type": "string"
        },
        {
          "name": "_bankacc",
          "type": "string"
        },
        {
          "name": "_bankname",
          "type": "string"
        },
        {
          "name": "_address",
          "type": "string"
        },
        {
          "name": "_ether_coins",
          "type": "string"
        }
      ],
      "name": "createOrganisation",
      "outputs": [
        {
          "name": "",
          "type": "uint256"
        }
      ],
      "payable": false,
      "stateMutability": "nonpayable",
      "type": "function"
    },
    {
      "constant": false,
      "inputs": [
        {
          "name": "add_of_charity",
          "type": "string"
        },
        {
          "name": "add_of_org",
          "type": "string"
        },
        {
          "name": "amount",
          "type": "string"
        }
      ],
      "name": "createTransaction",
      "outputs": [],
      "payable": false,
      "stateMutability": "nonpayable",
      "type": "function"
    },
    {
      "constant": false,
      "inputs": [],
      "name": "blockchain_function",
      "outputs": [],
      "payable": false,
      "stateMutability": "nonpayable",
      "type": "function"
    }
  ],
  "bytecode": "0x6080604052600080556000600155600060045560006006553480156200002457600080fd5b50620001f66040805190810160405280600d81526020017f616e616e645f6368617269747900000000000000000000000000000000000000815250608060405190810160405280605081526020017f77656c636f6d6520746f20616e616e64277320636861726974792c207468697381526020017f20697320612064656661756c742063686172697479206173204920637265617481526020017f65642074686973207765622070616765000000000000000000000000000000008152506040805190810160405280600781526020017f62616e6b616363000000000000000000000000000000000000000000000000008152506040805190810160405280600881526020017f62616e6b6e616d65000000000000000000000000000000000000000000000000815250606060405190810160405280602a81526020017f307843413335623764393135343538454635343061446536303638644665324681526020017f34344538666137333363000000000000000000000000000000000000000000008152506040805190810160405280600481526020017f30303030000000000000000000000000000000000000000000000000000000008152506200046e640100000000026401000000009004565b50620003456040805190810160405280601281526020017f616e616e645f6f7267616e69736174696f6e00000000000000000000000000008152506040805190810160405280600c81526020017f62616e6b206163636f756e7400000000000000000000000000000000000000008152506040805190810160405280600981526020017f62616e6b206e616d650000000000000000000000000000000000000000000000815250606060405190810160405280602a81526020017f307843413335623764393135343538454635343061446536303638644665324681526020017f34344538666137333363000000000000000000000000000000000000000000008152506040805190810160405280600481526020017f303030300000000000000000000000000000000000000000000000000000000081525062000a1c640100000000026401000000009004565b506200044f606060405190810160405280602a81526020017f307839453446653737626241333362396138353937653635463838414334304481526020017f3835623435443244354500000000000000000000000000000000000000000000815250606060405190810160405280602a81526020017f307830383633623436653531623935384539654666333636436344633145386681526020017f31653530393135633835000000000000000000000000000000000000000000008152506040805190810160405280600181526020017f310000000000000000000000000000000000000000000000000000000000000081525062000eda640100000000026401000000009004565b6200046862001260640100000000026401000000009004565b62003206565b6000806000815480929190600101919050555060608790506060879050606087905060608790506060879050606081518351855187518951010101016040519080825280601f01601f191660200182016040528015620004dd5781602001600182028038833980820191505090505b5090506060819050600080905060008090505b8851811015620005a95788818151811015156200050957fe5b9060200101517f010000000000000000000000000000000000000000000000000000000000000090047f01000000000000000000000000000000000000000000000000000000000000000283838151811015156200056357fe5b9060200101907effffffffffffffffffffffffffffffffffffffffffffffffffffffffffffff1916908160001a90535081806001019250508080600101915050620004f0565b5060008090505b875181101562000669578781815181101515620005c957fe5b9060200101517f010000000000000000000000000000000000000000000000000000000000000090047f01000000000000000000000000000000000000000000000000000000000000000283838151811015156200062357fe5b9060200101907effffffffffffffffffffffffffffffffffffffffffffffffffffffffffffff1916908160001a90535081806001019250508080600101915050620005b0565b5060008090505b8651811015620007295786818151811015156200068957fe5b9060200101517f010000000000000000000000000000000000000000000000000000000000000090047f0100000000000000000000000000000000000000000000000000000000000000028383815181101515620006e357fe5b9060200101907effffffffffffffffffffffffffffffffffffffffffffffffffffffffffffff1916908160001a9053508180600101925050808060010191505062000670565b5060008090505b8551811015620007e95785818151811015156200074957fe5b9060200101517f010000000000000000000000000000000000000000000000000000000000000090047f0100000000000000000000000000000000000000000000000000000000000000028383815181101515620007a357fe5b9060200101907effffffffffffffffffffffffffffffffffffffffffffffffffffffffffffff1916908160001a9053508180600101925050808060010191505062000730565b5060008090505b8451811015620008a95784818151811015156200080957fe5b9060200101517f010000000000000000000000000000000000000000000000000000000000000090047f01000000000000000000000000000000000000000000000000000000000000000283838151811015156200086357fe5b9060200101907effffffffffffffffffffffffffffffffffffffffffffffffffffffffffffff1916908160001a90535081806001019250508080600101915050620007f0565b506000828051906020012090508f60026000805481526020019081526020016000206000019080519060200190620008e3929190620030d0565b508e6002600080548152602001908152602001600020600101908051906020019062000911929190620030d0565b508d600260008054815260200190815260200160002060020190805190602001906200093f929190620030d0565b508c600260008054815260200190815260200160002060030190805190602001906200096d929190620030d0565b50600054600260008054815260200190815260200160002060040181905550806002600080548152602001908152602001600020600501819055508b60026000805481526020019081526020016000206006019080519060200190620009d5929190620030d0565b508a6002600080548152602001908152602001600020600701908051906020019062000a03929190620030d0565b5060005499505050505050505050509695505050505050565b60006001600081548092919060010191905055506060869050606086905060608690506060869050606081518351855187510101016040519080825280601f01601f19166020018201604052801562000a845781602001600182028038833980820191505090505b5090506060819050600080905060008090505b875181101562000b5057878181518110151562000ab057fe5b9060200101517f010000000000000000000000000000000000000000000000000000000000000090047f010000000000000000000000000000000000000000000000000000000000000002838381518110151562000b0a57fe5b9060200101907effffffffffffffffffffffffffffffffffffffffffffffffffffffffffffff1916908160001a9053508180600101925050808060010191505062000a97565b5060008090505b865181101562000c1057868181518110151562000b7057fe5b9060200101517f010000000000000000000000000000000000000000000000000000000000000090047f010000000000000000000000000000000000000000000000000000000000000002838381518110151562000bca57fe5b9060200101907effffffffffffffffffffffffffffffffffffffffffffffffffffffffffffff1916908160001a9053508180600101925050808060010191505062000b57565b5060008090505b855181101562000cd057858181518110151562000c3057fe5b9060200101517f010000000000000000000000000000000000000000000000000000000000000090047f010000000000000000000000000000000000000000000000000000000000000002838381518110151562000c8a57fe5b9060200101907effffffffffffffffffffffffffffffffffffffffffffffffffffffffffffff1916908160001a9053508180600101925050808060010191505062000c17565b5060008090505b845181101562000d9057848181518110151562000cf057fe5b9060200101517f010000000000000000000000000000000000000000000000000000000000000090047f010000000000000000000000000000000000000000000000000000000000000002838381518110151562000d4a57fe5b9060200101907effffffffffffffffffffffffffffffffffffffffffffffffffffffffffffff1916908160001a9053508180600101925050808060010191505062000cd7565b506000828051906020012090508d600360006001548152602001908152602001600020600001908051906020019062000dcb929190620030d0565b508c600360006001548152602001908152602001600020600101908051906020019062000dfa929190620030d0565b508b600360006001548152602001908152602001600020600201908051906020019062000e29929190620030d0565b506001546003600060015481526020019081526020016000206003018190555080600360006001548152602001908152602001600020600401819055508a600360006001548152602001908152602001600020600501908051906020019062000e94929190620030d0565b5089600360006001548152602001908152602001600020600601908051906020019062000ec3929190620030d0565b506001549850505050505050505095945050505050565b600460008154809291906001019190505550606083905060608390506060839050606081518351855101016040519080825280601f01601f19166020018201604052801562000f385781602001600182028038833980820191505090505b5090506060819050600080905060008090505b86518110156200100257868181518110151562000f6457fe5b9060200101517f010000000000000000000000000000000000000000000000000000000000000090047f010000000000000000000000000000000000000000000000000000000000000002838380600101945081518110151562000fc457fe5b9060200101907effffffffffffffffffffffffffffffffffffffffffffffffffffffffffffff1916908160001a905350808060010191505062000f4b565b5060008090505b8551811015620010c05785818151811015156200102257fe5b9060200101517f010000000000000000000000000000000000000000000000000000000000000090047f01000000000000000000000000000000000000000000000000000000000000000283838060010194508151811015156200108257fe5b9060200101907effffffffffffffffffffffffffffffffffffffffffffffffffffffffffffff1916908160001a905350808060010191505062001009565b5060008090505b84518110156200117e578481815181101515620010e057fe5b9060200101517f010000000000000000000000000000000000000000000000000000000000000090047f01000000000000000000000000000000000000000000000000000000000000000283838060010194508151811015156200114057fe5b9060200101907effffffffffffffffffffffffffffffffffffffffffffffffffffffffffffff1916908160001a9053508080600101915050620010c7565b50600082805190602001209050896005600060045481526020019081526020016000206000019080519060200190620011b9929190620030d0565b50886005600060045481526020019081526020016000206001019080519060200190620011e8929190620030d0565b5087600560006004548152602001908152602001600020600201908051906020019062001217929190620030d0565b5060045460056000600454815260200190815260200160002060030181905550806005600060045481526020019081526020016000206004018190555050505050505050505050565b60066000815480929190600101919050555060008090506000600190505b60005481111515620016fd576060600260008381526020019081526020016000206000018054600181600116156101000203166002900480601f0160208091040260200160405190810160405280929190818152602001828054600181600116156101000203166002900480156200133a5780601f106200130e576101008083540402835291602001916200133a565b820191906000526020600020905b8154815290600101906020018083116200131c57829003601f168201915b505050505090506060600260008481526020019081526020016000206001018054600181600116156101000203166002900480601f016020809104026020016040519081016040528092919081815260200182805460018160011615610100020316600290048015620013f15780601f10620013c557610100808354040283529160200191620013f1565b820191906000526020600020905b815481529060010190602001808311620013d357829003601f168201915b505050505090506060600260008581526020019081526020016000206002018054600181600116156101000203166002900480601f016020809104026020016040519081016040528092919081815260200182805460018160011615610100020316600290048015620014a85780601f106200147c57610100808354040283529160200191620014a8565b820191906000526020600020905b8154815290600101906020018083116200148a57829003601f168201915b505050505090506060600260008681526020019081526020016000206003018054600181600116156101000203166002900480601f0160208091040260200160405190810160405280929190818152602001828054600181600116156101000203166002900480156200155f5780601f1062001533576101008083540402835291602001916200155f565b820191906000526020600020905b8154815290600101906020018083116200154157829003601f168201915b505050505090506060600260008781526020019081526020016000206006018054600181600116156101000203166002900480601f016020809104026020016040519081016040528092919081815260200182805460018160011615610100020316600290048015620016165780601f10620015ea5761010080835404028352916020019162001616565b820191906000526020600020905b815481529060010190602001808311620015f857829003601f168201915b505050505090506060600260008881526020019081526020016000206007018054600181600116156101000203166002900480601f016020809104026020016040519081016040528092919081815260200182805460018160011615610100020316600290048015620016cd5780601f10620016a157610100808354040283529160200191620016cd565b820191906000526020600020905b815481529060010190602001808311620016af57829003601f168201915b50505050509050805182518451865188518a5101010101018801975050505050505080806001019150506200127e565b506000600190505b6001548111151562001ac9576060600360008381526020019081526020016000206000018054600181600116156101000203166002900480601f016020809104026020016040519081016040528092919081815260200182805460018160011615610100020316600290048015620017c15780601f106200179557610100808354040283529160200191620017c1565b820191906000526020600020905b815481529060010190602001808311620017a357829003601f168201915b505050505090506060600360008481526020019081526020016000206001018054600181600116156101000203166002900480601f016020809104026020016040519081016040528092919081815260200182805460018160011615610100020316600290048015620018785780601f106200184c5761010080835404028352916020019162001878565b820191906000526020600020905b8154815290600101906020018083116200185a57829003601f168201915b505050505090506060600360008581526020019081526020016000206002018054600181600116156101000203166002900480601f0160208091040260200160405190810160405280929190818152602001828054600181600116156101000203166002900480156200192f5780601f1062001903576101008083540402835291602001916200192f565b820191906000526020600020905b8154815290600101906020018083116200191157829003601f168201915b505050505090506060600360008681526020019081526020016000206005018054600181600116156101000203166002900480601f016020809104026020016040519081016040528092919081815260200182805460018160011615610100020316600290048015620019e65780601f10620019ba57610100808354040283529160200191620019e6565b820191906000526020600020905b815481529060010190602001808311620019c857829003601f168201915b505050505090506060600360008781526020019081526020016000206006018054600181600116156101000203166002900480601f01602080910402602001604051908101604052809291908181526020018280546001816001161561010002031660029004801562001a9d5780601f1062001a715761010080835404028352916020019162001a9d565b820191906000526020600020905b81548152906001019060200180831162001a7f57829003601f168201915b505050505090508051825184518651885101010101870196505050505050808060010191505062001705565b506060816040519080825280601f01601f19166020018201604052801562001b005781602001600182028038833980820191505090505b50905060008090506060829050600080600090506000600190505b60005481111515620023f9576060600260008381526020019081526020016000206000018054600181600116156101000203166002900480601f01602080910402602001604051908101604052809291908181526020018280546001816001161561010002031660029004801562001bd75780601f1062001bab5761010080835404028352916020019162001bd7565b820191906000526020600020905b81548152906001019060200180831162001bb957829003601f168201915b5050505050905060008090505b815181101562001c9b57818181518110151562001bfd57fe5b9060200101517f010000000000000000000000000000000000000000000000000000000000000090047f010000000000000000000000000000000000000000000000000000000000000002868580600101965081518110151562001c5d57fe5b9060200101907effffffffffffffffffffffffffffffffffffffffffffffffffffffffffffff1916908160001a905350808060010191505062001be4565b506060600260008481526020019081526020016000206001018054600181600116156101000203166002900480601f01602080910402602001604051908101604052809291908181526020018280546001816001161561010002031660029004801562001d4c5780601f1062001d205761010080835404028352916020019162001d4c565b820191906000526020600020905b81548152906001019060200180831162001d2e57829003601f168201915b5050505050905060008090505b815181101562001e1057818181518110151562001d7257fe5b9060200101517f010000000000000000000000000000000000000000000000000000000000000090047f010000000000000000000000000000000000000000000000000000000000000002878680600101975081518110151562001dd257fe5b9060200101907effffffffffffffffffffffffffffffffffffffffffffffffffffffffffffff1916908160001a905350808060010191505062001d59565b506060600260008581526020019081526020016000206002018054600181600116156101000203166002900480601f01602080910402602001604051908101604052809291908181526020018280546001816001161561010002031660029004801562001ec15780601f1062001e955761010080835404028352916020019162001ec1565b820191906000526020600020905b81548152906001019060200180831162001ea357829003601f168201915b5050505050905060008090505b815181101562001f8557818181518110151562001ee757fe5b9060200101517f010000000000000000000000000000000000000000000000000000000000000090047f010000000000000000000000000000000000000000000000000000000000000002888780600101985081518110151562001f4757fe5b9060200101907effffffffffffffffffffffffffffffffffffffffffffffffffffffffffffff1916908160001a905350808060010191505062001ece565b506060600260008681526020019081526020016000206003018054600181600116156101000203166002900480601f016020809104026020016040519081016040528092919081815260200182805460018160011615610100020316600290048015620020365780601f106200200a5761010080835404028352916020019162002036565b820191906000526020600020905b8154815290600101906020018083116200201857829003601f168201915b5050505050905060008090505b8151811015620020fa5781818151811015156200205c57fe5b9060200101517f010000000000000000000000000000000000000000000000000000000000000090047f0100000000000000000000000000000000000000000000000000000000000000028988806001019950815181101515620020bc57fe5b9060200101907effffffffffffffffffffffffffffffffffffffffffffffffffffffffffffff1916908160001a905350808060010191505062002043565b506060600260008781526020019081526020016000206006018054600181600116156101000203166002900480601f016020809104026020016040519081016040528092919081815260200182805460018160011615610100020316600290048015620021ab5780601f106200217f57610100808354040283529160200191620021ab565b820191906000526020600020905b8154815290600101906020018083116200218d57829003601f168201915b5050505050905060008090505b81518110156200226f578181815181101515620021d157fe5b9060200101517f010000000000000000000000000000000000000000000000000000000000000090047f0100000000000000000000000000000000000000000000000000000000000000028a89806001019a508151811015156200223157fe5b9060200101907effffffffffffffffffffffffffffffffffffffffffffffffffffffffffffff1916908160001a9053508080600101915050620021b8565b506060600260008881526020019081526020016000206007018054600181600116156101000203166002900480601f016020809104026020016040519081016040528092919081815260200182805460018160011615610100020316600290048015620023205780601f10620022f45761010080835404028352916020019162002320565b820191906000526020600020905b8154815290600101906020018083116200230257829003601f168201915b5050505050905060008090505b8151811015620023e45781818151811015156200234657fe5b9060200101517f010000000000000000000000000000000000000000000000000000000000000090047f0100000000000000000000000000000000000000000000000000000000000000028b8a806001019b50815181101515620023a657fe5b9060200101907effffffffffffffffffffffffffffffffffffffffffffffffffffffffffffff1916908160001a90535080806001019150506200232d565b50505050505050808060010191505062001b1b565b506000600190505b6001548111151562002b69576060600360008381526020019081526020016000206000018054600181600116156101000203166002900480601f016020809104026020016040519081016040528092919081815260200182805460018160011615610100020316600290048015620024bd5780601f106200249157610100808354040283529160200191620024bd565b820191906000526020600020905b8154815290600101906020018083116200249f57829003601f168201915b5050505050905060008090505b815181101562002581578181815181101515620024e357fe5b9060200101517f010000000000000000000000000000000000000000000000000000000000000090047f01000000000000000000000000000000000000000000000000000000000000000286858060010196508151811015156200254357fe5b9060200101907effffffffffffffffffffffffffffffffffffffffffffffffffffffffffffff1916908160001a9053508080600101915050620024ca565b506060600360008481526020019081526020016000206001018054600181600116156101000203166002900480601f016020809104026020016040519081016040528092919081815260200182805460018160011615610100020316600290048015620026325780601f10620026065761010080835404028352916020019162002632565b820191906000526020600020905b8154815290600101906020018083116200261457829003601f168201915b5050505050905060008090505b8151811015620026f65781818151811015156200265857fe5b9060200101517f010000000000000000000000000000000000000000000000000000000000000090047f0100000000000000000000000000000000000000000000000000000000000000028786806001019750815181101515620026b857fe5b9060200101907effffffffffffffffffffffffffffffffffffffffffffffffffffffffffffff1916908160001a90535080806001019150506200263f565b506060600360008581526020019081526020016000206002018054600181600116156101000203166002900480601f016020809104026020016040519081016040528092919081815260200182805460018160011615610100020316600290048015620027a75780601f106200277b57610100808354040283529160200191620027a7565b820191906000526020600020905b8154815290600101906020018083116200278957829003601f168201915b5050505050905060008090505b81518110156200286b578181815181101515620027cd57fe5b9060200101517f010000000000000000000000000000000000000000000000000000000000000090047f01000000000000000000000000000000000000000000000000000000000000000288878060010198508151811015156200282d57fe5b9060200101907effffffffffffffffffffffffffffffffffffffffffffffffffffffffffffff1916908160001a9053508080600101915050620027b4565b506060600360008681526020019081526020016000206005018054600181600116156101000203166002900480601f0160208091040260200160405190810160405280929190818152602001828054600181600116156101000203166002900480156200291c5780601f10620028f0576101008083540402835291602001916200291c565b820191906000526020600020905b815481529060010190602001808311620028fe57829003601f168201915b5050505050905060008090505b8151811015620029e05781818151811015156200294257fe5b9060200101517f010000000000000000000000000000000000000000000000000000000000000090047f0100000000000000000000000000000000000000000000000000000000000000028988806001019950815181101515620029a257fe5b9060200101907effffffffffffffffffffffffffffffffffffffffffffffffffffffffffffff1916908160001a905350808060010191505062002929565b506060600360008781526020019081526020016000206006018054600181600116156101000203166002900480601f01602080910402602001604051908101604052809291908181526020018280546001816001161561010002031660029004801562002a915780601f1062002a655761010080835404028352916020019162002a91565b820191906000526020600020905b81548152906001019060200180831162002a7357829003601f168201915b5050505050905060008090505b815181101562002b5557818181518110151562002ab757fe5b9060200101517f010000000000000000000000000000000000000000000000000000000000000090047f0100000000000000000000000000000000000000000000000000000000000000028a89806001019a5081518110151562002b1757fe5b9060200101907effffffffffffffffffffffffffffffffffffffffffffffffffffffffffffff1916908160001a905350808060010191505062002a9e565b505050505050808060010191505062002401565b5060008090506060806000600190505b6004548111151562002c485760045481141562002bd457600560008281526020019081526020016000206004015460405160200180828152602001915050604051602081830303815290604052925082518401935062002c3a565b60006001820190506005600083815260200190815260200160002060040154600560008381526020019081526020016000206004015460405160200180838152602001828152602001925050506040516020818303038152906040529250825185019450505b808060010191505062002b79565b506060836040519080825280601f01601f19166020018201604052801562002c7f5781602001600182028038833980820191505090505b509050606081905060008090506000600190505b6004548111151562002eda5760045481141562002da657600560008281526020019081526020016000206004015460405160200180828152602001915050604051602081830303815290604052955060008090505b865181101562002d9f57868181518110151562002d0157fe5b9060200101517f010000000000000000000000000000000000000000000000000000000000000090047f010000000000000000000000000000000000000000000000000000000000000002848480600101955081518110151562002d6157fe5b9060200101907effffffffffffffffffffffffffffffffffffffffffffffffffffffffffffff1916908160001a905350808060010191505062002ce8565b5062002ecc565b6000600182019050600560008381526020019081526020016000206004015460056000838152602001908152602001600020600401546040516020018083815260200182815260200192505050604051602081830303815290604052955060008090505b865181101562002ec157868181518110151562002e2357fe5b9060200101517f010000000000000000000000000000000000000000000000000000000000000090047f010000000000000000000000000000000000000000000000000000000000000002858580600101965081518110151562002e8357fe5b9060200101907effffffffffffffffffffffffffffffffffffffffffffffffffffffffffffff1916908160001a905350808060010191505062002e0a565b508180600101925050505b808060010191505062002c93565b5060008280519060200120905060608a516040519080825280601f01601f19166020018201604052801562002f1e5781602001600182028038833980820191505090505b5090506060819050600080905060008090505b8d5181101562002fe8578d8181518110151562002f4a57fe5b9060200101517f010000000000000000000000000000000000000000000000000000000000000090047f010000000000000000000000000000000000000000000000000000000000000002838380600101945081518110151562002faa57fe5b9060200101907effffffffffffffffffffffffffffffffffffffffffffffffffffffffffffff1916908160001a905350808060010191505062002f31565b5081805190602001209b50600654600760006006548152602001908152602001600020600301819055508c60076000600654815260200190815260200160002060010190805190602001906200304092919062003157565b508b60076000600654815260200190815260200160002060040181905550600854600760006006548152602001908152602001600020600501819055508d6007600060065481526020019081526020016000206000018190555083600760006006548152602001908152602001600020600201819055508b60088190555050505050505050505050505050505050565b828054600181600116156101000203166002900490600052602060002090601f016020900481019282601f106200311357805160ff191683800117855562003144565b8280016001018555821562003144579182015b828111156200314357825182559160200191906001019062003126565b5b509050620031539190620031de565b5090565b828054600181600116156101000203166002900490600052602060002090601f016020900481019282601f106200319a57805160ff1916838001178555620031cb565b82800160010185558215620031cb579182015b82811115620031ca578251825591602001919060010190620031ad565b5b509050620031da9190620031de565b5090565b6200320391905b80821115620031ff576000816000905550600101620031e5565b5090565b90565b6148fb80620032166000396000f3fe6080604052600436106100ba576000357c0100000000000000000000000000000000000000000000000000000000900463ffffffff1680630ae9d38e146100bf57806317db127a146100ea5780631c74915a146102e05780636610f9cf146102f757806369e6601c146105d55780636f05bbf414610847578063acecc1491461091e578063b7483a1b14610949578063cc11e16914610d18578063d5e2c5e414611050578063f3e2236f146111ea578063f7ff50e214611215575b600080fd5b3480156100cb57600080fd5b506100d4611240565b6040518082815260200191505060405180910390f35b3480156100f657600080fd5b506102de6004803603606081101561010d57600080fd5b810190808035906020019064010000000081111561012a57600080fd5b82018360208201111561013c57600080fd5b8035906020019184600183028401116401000000008311171561015e57600080fd5b91908080601f016020809104026020016040519081016040528093929190818152602001838380828437600081840152601f19601f820116905080830192505050505050509192919290803590602001906401000000008111156101c157600080fd5b8201836020820111156101d357600080fd5b803590602001918460018302840111640100000000831117156101f557600080fd5b91908080601f016020809104026020016040519081016040528093929190818152602001838380828437600081840152601f19601f8201169050808301925050505050505091929192908035906020019064010000000081111561025857600080fd5b82018360208201111561026a57600080fd5b8035906020019184600183028401116401000000008311171561028c57600080fd5b91908080601f016020809104026020016040519081016040528093929190818152602001838380828437600081840152601f19601f820116905080830192505050505050509192919290505050611246565b005b3480156102ec57600080fd5b506102f56115b9565b005b34801561030357600080fd5b506103306004803603602081101561031a57600080fd5b8101908080359060200190929190505050613384565b6040518080602001806020018060200180602001898152602001888152602001806020018060200187810387528f818151815260200191508051906020019080838360005b83811015610390578082015181840152602081019050610375565b50505050905090810190601f1680156103bd5780820380516001836020036101000a031916815260200191505b5087810386528e818151815260200191508051906020019080838360005b838110156103f65780820151818401526020810190506103db565b50505050905090810190601f1680156104235780820380516001836020036101000a031916815260200191505b5087810385528d818151815260200191508051906020019080838360005b8381101561045c578082015181840152602081019050610441565b50505050905090810190601f1680156104895780820380516001836020036101000a031916815260200191505b5087810384528c818151815260200191508051906020019080838360005b838110156104c25780820151818401526020810190506104a7565b50505050905090810190601f1680156104ef5780820380516001836020036101000a031916815260200191505b50878103835289818151815260200191508051906020019080838360005b8381101561052857808201518184015260208101905061050d565b50505050905090810190601f1680156105555780820380516001836020036101000a031916815260200191505b50878103825288818151815260200191508051906020019080838360005b8381101561058e578082015181840152602081019050610573565b50505050905090810190601f1680156105bb5780820380516001836020036101000a031916815260200191505b509e50505050505050505050505050505060405180910390f35b3480156105e157600080fd5b5061060e600480360360208110156105f857600080fd5b810190808035906020019092919050505061375c565b60405180806020018060200180602001888152602001878152602001806020018060200186810386528d818151815260200191508051906020019080838360005b8381101561066a57808201518184015260208101905061064f565b50505050905090810190601f1680156106975780820380516001836020036101000a031916815260200191505b5086810385528c818151815260200191508051906020019080838360005b838110156106d05780820151818401526020810190506106b5565b50505050905090810190601f1680156106fd5780820380516001836020036101000a031916815260200191505b5086810384528b818151815260200191508051906020019080838360005b8381101561073657808201518184015260208101905061071b565b50505050905090810190601f1680156107635780820380516001836020036101000a031916815260200191505b50868103835288818151815260200191508051906020019080838360005b8381101561079c578082015181840152602081019050610781565b50505050905090810190601f1680156107c95780820380516001836020036101000a031916815260200191505b50868103825287818151815260200191508051906020019080838360005b838110156108025780820151818401526020810190506107e7565b50505050905090810190601f16801561082f5780820380516001836020036101000a031916815260200191505b509c5050505050505050505050505060405180910390f35b34801561085357600080fd5b506108806004803603602081101561086a57600080fd5b8101908080359060200190929190505050613a96565b6040518087815260200180602001868152602001858152602001848152602001838152602001828103825287818151815260200191508051906020019080838360005b838110156108de5780820151818401526020810190506108c3565b50505050905090810190601f16801561090b5780820380516001836020036101000a031916815260200191505b5097505050505050505060405180910390f35b34801561092a57600080fd5b50610933613b6a565b6040518082815260200191505060405180910390f35b34801561095557600080fd5b50610d02600480360360c081101561096c57600080fd5b810190808035906020019064010000000081111561098957600080fd5b82018360208201111561099b57600080fd5b803590602001918460018302840111640100000000831117156109bd57600080fd5b91908080601f016020809104026020016040519081016040528093929190818152602001838380828437600081840152601f19601f82011690508083019250505050505050919291929080359060200190640100000000811115610a2057600080fd5b820183602082011115610a3257600080fd5b80359060200191846001830284011164010000000083111715610a5457600080fd5b91908080601f016020809104026020016040519081016040528093929190818152602001838380828437600081840152601f19601f82011690508083019250505050505050919291929080359060200190640100000000811115610ab757600080fd5b820183602082011115610ac957600080fd5b80359060200191846001830284011164010000000083111715610aeb57600080fd5b91908080601f016020809104026020016040519081016040528093929190818152602001838380828437600081840152601f19601f82011690508083019250505050505050919291929080359060200190640100000000811115610b4e57600080fd5b820183602082011115610b6057600080fd5b80359060200191846001830284011164010000000083111715610b8257600080fd5b91908080601f016020809104026020016040519081016040528093929190818152602001838380828437600081840152601f19601f82011690508083019250505050505050919291929080359060200190640100000000811115610be557600080fd5b820183602082011115610bf757600080fd5b80359060200191846001830284011164010000000083111715610c1957600080fd5b91908080601f016020809104026020016040519081016040528093929190818152602001838380828437600081840152601f19601f82011690508083019250505050505050919291929080359060200190640100000000811115610c7c57600080fd5b820183602082011115610c8e57600080fd5b80359060200191846001830284011164010000000083111715610cb057600080fd5b91908080601f016020809104026020016040519081016040528093929190818152602001838380828437600081840152601f19601f820116905080830192505050505050509192919290505050613b70565b6040518082815260200191505060405180910390f35b348015610d2457600080fd5b5061103a600480360360a0811015610d3b57600080fd5b8101908080359060200190640100000000811115610d5857600080fd5b820183602082011115610d6a57600080fd5b80359060200191846001830284011164010000000083111715610d8c57600080fd5b91908080601f016020809104026020016040519081016040528093929190818152602001838380828437600081840152601f19601f82011690508083019250505050505050919291929080359060200190640100000000811115610def57600080fd5b820183602082011115610e0157600080fd5b80359060200191846001830284011164010000000083111715610e2357600080fd5b91908080601f016020809104026020016040519081016040528093929190818152602001838380828437600081840152601f19601f82011690508083019250505050505050919291929080359060200190640100000000811115610e8657600080fd5b820183602082011115610e9857600080fd5b80359060200191846001830284011164010000000083111715610eba57600080fd5b91908080601f016020809104026020016040519081016040528093929190818152602001838380828437600081840152601f19601f82011690508083019250505050505050919291929080359060200190640100000000811115610f1d57600080fd5b820183602082011115610f2f57600080fd5b80359060200191846001830284011164010000000083111715610f5157600080fd5b91908080601f016020809104026020016040519081016040528093929190818152602001838380828437600081840152601f19601f82011690508083019250505050505050919291929080359060200190640100000000811115610fb457600080fd5b820183602082011115610fc657600080fd5b80359060200191846001830284011164010000000083111715610fe857600080fd5b91908080601f016020809104026020016040519081016040528093929190818152602001838380828437600081840152601f19601f8201169050808301925050505050505091929192905050506140fd565b6040518082815260200191505060405180910390f35b34801561105c57600080fd5b506110896004803603602081101561107357600080fd5b81019080803590602001909291905050506145a0565b60405180806020018060200180602001868152602001858152602001848103845289818151815260200191508051906020019080838360005b838110156110dd5780820151818401526020810190506110c2565b50505050905090810190601f16801561110a5780820380516001836020036101000a031916815260200191505b50848103835288818151815260200191508051906020019080838360005b83811015611143578082015181840152602081019050611128565b50505050905090810190601f1680156111705780820380516001836020036101000a031916815260200191505b50848103825287818151815260200191508051906020019080838360005b838110156111a957808201518184015260208101905061118e565b50505050905090810190601f1680156111d65780820380516001836020036101000a031916815260200191505b509850505050505050505060405180910390f35b3480156111f657600080fd5b506111ff61479e565b6040518082815260200191505060405180910390f35b34801561122157600080fd5b5061122a6147a4565b6040518082815260200191505060405180910390f35b60065481565b600460008154809291906001019190505550606083905060608390506060839050606081518351855101016040519080825280601f01601f1916602001820160405280156112a35781602001600182028038833980820191505090505b5090506060819050600080905060008090505b86518110156113695786818151811015156112cd57fe5b9060200101517f010000000000000000000000000000000000000000000000000000000000000090047f010000000000000000000000000000000000000000000000000000000000000002838380600101945081518110151561132c57fe5b9060200101907effffffffffffffffffffffffffffffffffffffffffffffffffffffffffffff1916908160001a90535080806001019150506112b6565b5060008090505b855181101561142357858181518110151561138757fe5b9060200101517f010000000000000000000000000000000000000000000000000000000000000090047f01000000000000000000000000000000000000000000000000000000000000000283838060010194508151811015156113e657fe5b9060200101907effffffffffffffffffffffffffffffffffffffffffffffffffffffffffffff1916908160001a9053508080600101915050611370565b5060008090505b84518110156114dd57848181518110151561144157fe5b9060200101517f010000000000000000000000000000000000000000000000000000000000000090047f01000000000000000000000000000000000000000000000000000000000000000283838060010194508151811015156114a057fe5b9060200101907effffffffffffffffffffffffffffffffffffffffffffffffffffffffffffff1916908160001a905350808060010191505061142a565b506000828051906020012090508960056000600454815260200190815260200160002060000190805190602001906115169291906147aa565b508860056000600454815260200190815260200160002060010190805190602001906115439291906147aa565b508760056000600454815260200190815260200160002060020190805190602001906115709291906147aa565b5060045460056000600454815260200190815260200160002060030181905550806005600060045481526020019081526020016000206004018190555050505050505050505050565b60066000815480929190600101919050555060008090506000600190505b60005481111515611a3c576060600260008381526020019081526020016000206000018054600181600116156101000203166002900480601f01602080910402602001604051908101604052809291908181526020018280546001816001161561010002031660029004801561168e5780601f106116635761010080835404028352916020019161168e565b820191906000526020600020905b81548152906001019060200180831161167157829003601f168201915b505050505090506060600260008481526020019081526020016000206001018054600181600116156101000203166002900480601f0160208091040260200160405190810160405280929190818152602001828054600181600116156101000203166002900480156117415780601f1061171657610100808354040283529160200191611741565b820191906000526020600020905b81548152906001019060200180831161172457829003601f168201915b505050505090506060600260008581526020019081526020016000206002018054600181600116156101000203166002900480601f0160208091040260200160405190810160405280929190818152602001828054600181600116156101000203166002900480156117f45780601f106117c9576101008083540402835291602001916117f4565b820191906000526020600020905b8154815290600101906020018083116117d757829003601f168201915b505050505090506060600260008681526020019081526020016000206003018054600181600116156101000203166002900480601f0160208091040260200160405190810160405280929190818152602001828054600181600116156101000203166002900480156118a75780601f1061187c576101008083540402835291602001916118a7565b820191906000526020600020905b81548152906001019060200180831161188a57829003601f168201915b505050505090506060600260008781526020019081526020016000206006018054600181600116156101000203166002900480601f01602080910402602001604051908101604052809291908181526020018280546001816001161561010002031660029004801561195a5780601f1061192f5761010080835404028352916020019161195a565b820191906000526020600020905b81548152906001019060200180831161193d57829003601f168201915b505050505090506060600260008881526020019081526020016000206007018054600181600116156101000203166002900480601f016020809104026020016040519081016040528092919081815260200182805460018160011615610100020316600290048015611a0d5780601f106119e257610100808354040283529160200191611a0d565b820191906000526020600020905b8154815290600101906020018083116119f057829003601f168201915b50505050509050805182518451865188518a5101010101018801975050505050505080806001019150506115d7565b506000600190505b60015481111515611df2576060600360008381526020019081526020016000206000018054600181600116156101000203166002900480601f016020809104026020016040519081016040528092919081815260200182805460018160011615610100020316600290048015611afb5780601f10611ad057610100808354040283529160200191611afb565b820191906000526020600020905b815481529060010190602001808311611ade57829003601f168201915b505050505090506060600360008481526020019081526020016000206001018054600181600116156101000203166002900480601f016020809104026020016040519081016040528092919081815260200182805460018160011615610100020316600290048015611bae5780601f10611b8357610100808354040283529160200191611bae565b820191906000526020600020905b815481529060010190602001808311611b9157829003601f168201915b505050505090506060600360008581526020019081526020016000206002018054600181600116156101000203166002900480601f016020809104026020016040519081016040528092919081815260200182805460018160011615610100020316600290048015611c615780601f10611c3657610100808354040283529160200191611c61565b820191906000526020600020905b815481529060010190602001808311611c4457829003601f168201915b505050505090506060600360008681526020019081526020016000206005018054600181600116156101000203166002900480601f016020809104026020016040519081016040528092919081815260200182805460018160011615610100020316600290048015611d145780601f10611ce957610100808354040283529160200191611d14565b820191906000526020600020905b815481529060010190602001808311611cf757829003601f168201915b505050505090506060600360008781526020019081526020016000206006018054600181600116156101000203166002900480601f016020809104026020016040519081016040528092919081815260200182805460018160011615610100020316600290048015611dc75780601f10611d9c57610100808354040283529160200191611dc7565b820191906000526020600020905b815481529060010190602001808311611daa57829003601f168201915b5050505050905080518251845186518851010101018701965050505050508080600101915050611a44565b506060816040519080825280601f01601f191660200182016040528015611e285781602001600182028038833980820191505090505b50905060008090506060829050600080600090506000600190505b600054811115156126ef576060600260008381526020019081526020016000206000018054600181600116156101000203166002900480601f016020809104026020016040519081016040528092919081815260200182805460018160011615610100020316600290048015611efa5780601f10611ecf57610100808354040283529160200191611efa565b820191906000526020600020905b815481529060010190602001808311611edd57829003601f168201915b5050505050905060008090505b8151811015611fba578181815181101515611f1e57fe5b9060200101517f010000000000000000000000000000000000000000000000000000000000000090047f0100000000000000000000000000000000000000000000000000000000000000028685806001019650815181101515611f7d57fe5b9060200101907effffffffffffffffffffffffffffffffffffffffffffffffffffffffffffff1916908160001a9053508080600101915050611f07565b506060600260008481526020019081526020016000206001018054600181600116156101000203166002900480601f0160208091040260200160405190810160405280929190818152602001828054600181600116156101000203166002900480156120675780601f1061203c57610100808354040283529160200191612067565b820191906000526020600020905b81548152906001019060200180831161204a57829003601f168201915b5050505050905060008090505b815181101561212757818181518110151561208b57fe5b9060200101517f010000000000000000000000000000000000000000000000000000000000000090047f01000000000000000000000000000000000000000000000000000000000000000287868060010197508151811015156120ea57fe5b9060200101907effffffffffffffffffffffffffffffffffffffffffffffffffffffffffffff1916908160001a9053508080600101915050612074565b506060600260008581526020019081526020016000206002018054600181600116156101000203166002900480601f0160208091040260200160405190810160405280929190818152602001828054600181600116156101000203166002900480156121d45780601f106121a9576101008083540402835291602001916121d4565b820191906000526020600020905b8154815290600101906020018083116121b757829003601f168201915b5050505050905060008090505b81518110156122945781818151811015156121f857fe5b9060200101517f010000000000000000000000000000000000000000000000000000000000000090047f010000000000000000000000000000000000000000000000000000000000000002888780600101985081518110151561225757fe5b9060200101907effffffffffffffffffffffffffffffffffffffffffffffffffffffffffffff1916908160001a90535080806001019150506121e1565b506060600260008681526020019081526020016000206003018054600181600116156101000203166002900480601f0160208091040260200160405190810160405280929190818152602001828054600181600116156101000203166002900480156123415780601f1061231657610100808354040283529160200191612341565b820191906000526020600020905b81548152906001019060200180831161232457829003601f168201915b5050505050905060008090505b815181101561240157818181518110151561236557fe5b9060200101517f010000000000000000000000000000000000000000000000000000000000000090047f01000000000000000000000000000000000000000000000000000000000000000289888060010199508151811015156123c457fe5b9060200101907effffffffffffffffffffffffffffffffffffffffffffffffffffffffffffff1916908160001a905350808060010191505061234e565b506060600260008781526020019081526020016000206006018054600181600116156101000203166002900480601f0160208091040260200160405190810160405280929190818152602001828054600181600116156101000203166002900480156124ae5780601f10612483576101008083540402835291602001916124ae565b820191906000526020600020905b81548152906001019060200180831161249157829003601f168201915b5050505050905060008090505b815181101561256e5781818151811015156124d257fe5b9060200101517f010000000000000000000000000000000000000000000000000000000000000090047f0100000000000000000000000000000000000000000000000000000000000000028a89806001019a5081518110151561253157fe5b9060200101907effffffffffffffffffffffffffffffffffffffffffffffffffffffffffffff1916908160001a90535080806001019150506124bb565b506060600260008881526020019081526020016000206007018054600181600116156101000203166002900480601f01602080910402602001604051908101604052809291908181526020018280546001816001161561010002031660029004801561261b5780601f106125f05761010080835404028352916020019161261b565b820191906000526020600020905b8154815290600101906020018083116125fe57829003601f168201915b5050505050905060008090505b81518110156126db57818181518110151561263f57fe5b9060200101517f010000000000000000000000000000000000000000000000000000000000000090047f0100000000000000000000000000000000000000000000000000000000000000028b8a806001019b5081518110151561269e57fe5b9060200101907effffffffffffffffffffffffffffffffffffffffffffffffffffffffffffff1916908160001a9053508080600101915050612628565b505050505050508080600101915050611e43565b506000600190505b60015481111515612e35576060600360008381526020019081526020016000206000018054600181600116156101000203166002900480601f0160208091040260200160405190810160405280929190818152602001828054600181600116156101000203166002900480156127ae5780601f10612783576101008083540402835291602001916127ae565b820191906000526020600020905b81548152906001019060200180831161279157829003601f168201915b5050505050905060008090505b815181101561286e5781818151811015156127d257fe5b9060200101517f010000000000000000000000000000000000000000000000000000000000000090047f010000000000000000000000000000000000000000000000000000000000000002868580600101965081518110151561283157fe5b9060200101907effffffffffffffffffffffffffffffffffffffffffffffffffffffffffffff1916908160001a90535080806001019150506127bb565b506060600360008481526020019081526020016000206001018054600181600116156101000203166002900480601f01602080910402602001604051908101604052809291908181526020018280546001816001161561010002031660029004801561291b5780601f106128f05761010080835404028352916020019161291b565b820191906000526020600020905b8154815290600101906020018083116128fe57829003601f168201915b5050505050905060008090505b81518110156129db57818181518110151561293f57fe5b9060200101517f010000000000000000000000000000000000000000000000000000000000000090047f010000000000000000000000000000000000000000000000000000000000000002878680600101975081518110151561299e57fe5b9060200101907effffffffffffffffffffffffffffffffffffffffffffffffffffffffffffff1916908160001a9053508080600101915050612928565b506060600360008581526020019081526020016000206002018054600181600116156101000203166002900480601f016020809104026020016040519081016040528092919081815260200182805460018160011615610100020316600290048015612a885780601f10612a5d57610100808354040283529160200191612a88565b820191906000526020600020905b815481529060010190602001808311612a6b57829003601f168201915b5050505050905060008090505b8151811015612b48578181815181101515612aac57fe5b9060200101517f010000000000000000000000000000000000000000000000000000000000000090047f0100000000000000000000000000000000000000000000000000000000000000028887806001019850815181101515612b0b57fe5b9060200101907effffffffffffffffffffffffffffffffffffffffffffffffffffffffffffff1916908160001a9053508080600101915050612a95565b506060600360008681526020019081526020016000206005018054600181600116156101000203166002900480601f016020809104026020016040519081016040528092919081815260200182805460018160011615610100020316600290048015612bf55780601f10612bca57610100808354040283529160200191612bf5565b820191906000526020600020905b815481529060010190602001808311612bd857829003601f168201915b5050505050905060008090505b8151811015612cb5578181815181101515612c1957fe5b9060200101517f010000000000000000000000000000000000000000000000000000000000000090047f0100000000000000000000000000000000000000000000000000000000000000028988806001019950815181101515612c7857fe5b9060200101907effffffffffffffffffffffffffffffffffffffffffffffffffffffffffffff1916908160001a9053508080600101915050612c02565b506060600360008781526020019081526020016000206006018054600181600116156101000203166002900480601f016020809104026020016040519081016040528092919081815260200182805460018160011615610100020316600290048015612d625780601f10612d3757610100808354040283529160200191612d62565b820191906000526020600020905b815481529060010190602001808311612d4557829003601f168201915b5050505050905060008090505b8151811015612e22578181815181101515612d8657fe5b9060200101517f010000000000000000000000000000000000000000000000000000000000000090047f0100000000000000000000000000000000000000000000000000000000000000028a89806001019a50815181101515612de557fe5b9060200101907effffffffffffffffffffffffffffffffffffffffffffffffffffffffffffff1916908160001a9053508080600101915050612d6f565b50505050505080806001019150506126f7565b5060008090506060806000600190505b60045481111515612f1057600454811415612e9d576005600082815260200190815260200160002060040154604051602001808281526020019150506040516020818303038152906040529250825184019350612f03565b60006001820190506005600083815260200190815260200160002060040154600560008381526020019081526020016000206004015460405160200180838152602001828152602001925050506040516020818303038152906040529250825185019450505b8080600101915050612e45565b506060836040519080825280601f01601f191660200182016040528015612f465781602001600182028038833980820191505090505b509050606081905060008090506000600190505b600454811115156131955760045481141561306657600560008281526020019081526020016000206004015460405160200180828152602001915050604051602081830303815290604052955060008090505b8651811015613060578681815181101515612fc457fe5b9060200101517f010000000000000000000000000000000000000000000000000000000000000090047f010000000000000000000000000000000000000000000000000000000000000002848480600101955081518110151561302357fe5b9060200101907effffffffffffffffffffffffffffffffffffffffffffffffffffffffffffff1916908160001a9053508080600101915050612fad565b50613188565b6000600182019050600560008381526020019081526020016000206004015460056000838152602001908152602001600020600401546040516020018083815260200182815260200192505050604051602081830303815290604052955060008090505b865181101561317d5786818151811015156130e157fe5b9060200101517f010000000000000000000000000000000000000000000000000000000000000090047f010000000000000000000000000000000000000000000000000000000000000002858580600101965081518110151561314057fe5b9060200101907effffffffffffffffffffffffffffffffffffffffffffffffffffffffffffff1916908160001a90535080806001019150506130ca565b508180600101925050505b8080600101915050612f5a565b5060008280519060200120905060608a516040519080825280601f01601f1916602001820160405280156131d85781602001600182028038833980820191505090505b5090506060819050600080905060008090505b8d5181101561329e578d8181518110151561320257fe5b9060200101517f010000000000000000000000000000000000000000000000000000000000000090047f010000000000000000000000000000000000000000000000000000000000000002838380600101945081518110151561326157fe5b9060200101907effffffffffffffffffffffffffffffffffffffffffffffffffffffffffffff1916908160001a90535080806001019150506131eb565b5081805190602001209b50600654600760006006548152602001908152602001600020600301819055508c60076000600654815260200190815260200160002060010190805190602001906132f492919061482a565b508b60076000600654815260200190815260200160002060040181905550600854600760006006548152602001908152602001600020600501819055508d6007600060065481526020019081526020016000206000018190555083600760006006548152602001908152602001600020600201819055508b60088190555050505050505050505050505050505050565b6002602052806000526040600020600091509050806000018054600181600116156101000203166002900480601f0160208091040260200160405190810160405280929190818152602001828054600181600116156101000203166002900480156134305780601f1061340557610100808354040283529160200191613430565b820191906000526020600020905b81548152906001019060200180831161341357829003601f168201915b505050505090806001018054600181600116156101000203166002900480601f0160208091040260200160405190810160405280929190818152602001828054600181600116156101000203166002900480156134ce5780601f106134a3576101008083540402835291602001916134ce565b820191906000526020600020905b8154815290600101906020018083116134b157829003601f168201915b505050505090806002018054600181600116156101000203166002900480601f01602080910402602001604051908101604052809291908181526020018280546001816001161561010002031660029004801561356c5780601f106135415761010080835404028352916020019161356c565b820191906000526020600020905b81548152906001019060200180831161354f57829003601f168201915b505050505090806003018054600181600116156101000203166002900480601f01602080910402602001604051908101604052809291908181526020018280546001816001161561010002031660029004801561360a5780601f106135df5761010080835404028352916020019161360a565b820191906000526020600020905b8154815290600101906020018083116135ed57829003601f168201915b505050505090806004015490806005015490806006018054600181600116156101000203166002900480601f0160208091040260200160405190810160405280929190818152602001828054600181600116156101000203166002900480156136b45780601f10613689576101008083540402835291602001916136b4565b820191906000526020600020905b81548152906001019060200180831161369757829003601f168201915b505050505090806007018054600181600116156101000203166002900480601f0160208091040260200160405190810160405280929190818152602001828054600181600116156101000203166002900480156137525780601f1061372757610100808354040283529160200191613752565b820191906000526020600020905b81548152906001019060200180831161373557829003601f168201915b5050505050905088565b6003602052806000526040600020600091509050806000018054600181600116156101000203166002900480601f0160208091040260200160405190810160405280929190818152602001828054600181600116156101000203166002900480156138085780601f106137dd57610100808354040283529160200191613808565b820191906000526020600020905b8154815290600101906020018083116137eb57829003601f168201915b505050505090806001018054600181600116156101000203166002900480601f0160208091040260200160405190810160405280929190818152602001828054600181600116156101000203166002900480156138a65780601f1061387b576101008083540402835291602001916138a6565b820191906000526020600020905b81548152906001019060200180831161388957829003601f168201915b505050505090806002018054600181600116156101000203166002900480601f0160208091040260200160405190810160405280929190818152602001828054600181600116156101000203166002900480156139445780601f1061391957610100808354040283529160200191613944565b820191906000526020600020905b81548152906001019060200180831161392757829003601f168201915b505050505090806003015490806004015490806005018054600181600116156101000203166002900480601f0160208091040260200160405190810160405280929190818152602001828054600181600116156101000203166002900480156139ee5780601f106139c3576101008083540402835291602001916139ee565b820191906000526020600020905b8154815290600101906020018083116139d157829003601f168201915b505050505090806006018054600181600116156101000203166002900480601f016020809104026020016040519081016040528092919081815260200182805460018160011615610100020316600290048015613a8c5780601f10613a6157610100808354040283529160200191613a8c565b820191906000526020600020905b815481529060010190602001808311613a6f57829003601f168201915b5050505050905087565b6007602052806000526040600020600091509050806000015490806001018054600181600116156101000203166002900480601f016020809104026020016040519081016040528092919081815260200182805460018160011615610100020316600290048015613b485780601f10613b1d57610100808354040283529160200191613b48565b820191906000526020600020905b815481529060010190602001808311613b2b57829003601f168201915b5050505050908060020154908060030154908060040154908060050154905086565b60005481565b6000806000815480929190600101919050555060608790506060879050606087905060608790506060879050606081518351855187518951010101016040519080825280601f01601f191660200182016040528015613bde5781602001600182028038833980820191505090505b5090506060819050600080905060008090505b8851811015613ca6578881815181101515613c0857fe5b9060200101517f010000000000000000000000000000000000000000000000000000000000000090047f0100000000000000000000000000000000000000000000000000000000000000028383815181101515613c6157fe5b9060200101907effffffffffffffffffffffffffffffffffffffffffffffffffffffffffffff1916908160001a90535081806001019250508080600101915050613bf1565b5060008090505b8751811015613d62578781815181101515613cc457fe5b9060200101517f010000000000000000000000000000000000000000000000000000000000000090047f0100000000000000000000000000000000000000000000000000000000000000028383815181101515613d1d57fe5b9060200101907effffffffffffffffffffffffffffffffffffffffffffffffffffffffffffff1916908160001a90535081806001019250508080600101915050613cad565b5060008090505b8651811015613e1e578681815181101515613d8057fe5b9060200101517f010000000000000000000000000000000000000000000000000000000000000090047f0100000000000000000000000000000000000000000000000000000000000000028383815181101515613dd957fe5b9060200101907effffffffffffffffffffffffffffffffffffffffffffffffffffffffffffff1916908160001a90535081806001019250508080600101915050613d69565b5060008090505b8551811015613eda578581815181101515613e3c57fe5b9060200101517f010000000000000000000000000000000000000000000000000000000000000090047f0100000000000000000000000000000000000000000000000000000000000000028383815181101515613e9557fe5b9060200101907effffffffffffffffffffffffffffffffffffffffffffffffffffffffffffff1916908160001a90535081806001019250508080600101915050613e25565b5060008090505b8451811015613f96578481815181101515613ef857fe5b9060200101517f010000000000000000000000000000000000000000000000000000000000000090047f0100000000000000000000000000000000000000000000000000000000000000028383815181101515613f5157fe5b9060200101907effffffffffffffffffffffffffffffffffffffffffffffffffffffffffffff1916908160001a90535081806001019250508080600101915050613ee1565b506000828051906020012090508f60026000805481526020019081526020016000206000019080519060200190613fce9291906147aa565b508e60026000805481526020019081526020016000206001019080519060200190613ffa9291906147aa565b508d600260008054815260200190815260200160002060020190805190602001906140269291906147aa565b508c600260008054815260200190815260200160002060030190805190602001906140529291906147aa565b50600054600260008054815260200190815260200160002060040181905550806002600080548152602001908152602001600020600501819055508b600260008054815260200190815260200160002060060190805190602001906140b89291906147aa565b508a600260008054815260200190815260200160002060070190805190602001906140e49291906147aa565b5060005499505050505050505050509695505050505050565b60006001600081548092919060010191905055506060869050606086905060608690506060869050606081518351855187510101016040519080825280601f01601f1916602001820160405280156141645781602001600182028038833980820191505090505b5090506060819050600080905060008090505b875181101561422c57878181518110151561418e57fe5b9060200101517f010000000000000000000000000000000000000000000000000000000000000090047f01000000000000000000000000000000000000000000000000000000000000000283838151811015156141e757fe5b9060200101907effffffffffffffffffffffffffffffffffffffffffffffffffffffffffffff1916908160001a90535081806001019250508080600101915050614177565b5060008090505b86518110156142e857868181518110151561424a57fe5b9060200101517f010000000000000000000000000000000000000000000000000000000000000090047f01000000000000000000000000000000000000000000000000000000000000000283838151811015156142a357fe5b9060200101907effffffffffffffffffffffffffffffffffffffffffffffffffffffffffffff1916908160001a90535081806001019250508080600101915050614233565b5060008090505b85518110156143a457858181518110151561430657fe5b9060200101517f010000000000000000000000000000000000000000000000000000000000000090047f010000000000000000000000000000000000000000000000000000000000000002838381518110151561435f57fe5b9060200101907effffffffffffffffffffffffffffffffffffffffffffffffffffffffffffff1916908160001a905350818060010192505080806001019150506142ef565b5060008090505b84518110156144605784818151811015156143c257fe5b9060200101517f010000000000000000000000000000000000000000000000000000000000000090047f010000000000000000000000000000000000000000000000000000000000000002838381518110151561441b57fe5b9060200101907effffffffffffffffffffffffffffffffffffffffffffffffffffffffffffff1916908160001a905350818060010192505080806001019150506143ab565b506000828051906020012090508d60036000600154815260200190815260200160002060000190805190602001906144999291906147aa565b508c60036000600154815260200190815260200160002060010190805190602001906144c69291906147aa565b508b60036000600154815260200190815260200160002060020190805190602001906144f39291906147aa565b506001546003600060015481526020019081526020016000206003018190555080600360006001548152602001908152602001600020600401819055508a600360006001548152602001908152602001600020600501908051906020019061455c9291906147aa565b508960036000600154815260200190815260200160002060060190805190602001906145899291906147aa565b506001549850505050505050505095945050505050565b6005602052806000526040600020600091509050806000018054600181600116156101000203166002900480601f01602080910402602001604051908101604052809291908181526020018280546001816001161561010002031660029004801561464c5780601f106146215761010080835404028352916020019161464c565b820191906000526020600020905b81548152906001019060200180831161462f57829003601f168201915b505050505090806001018054600181600116156101000203166002900480601f0160208091040260200160405190810160405280929190818152602001828054600181600116156101000203166002900480156146ea5780601f106146bf576101008083540402835291602001916146ea565b820191906000526020600020905b8154815290600101906020018083116146cd57829003601f168201915b505050505090806002018054600181600116156101000203166002900480601f0160208091040260200160405190810160405280929190818152602001828054600181600116156101000203166002900480156147885780601f1061475d57610100808354040283529160200191614788565b820191906000526020600020905b81548152906001019060200180831161476b57829003601f168201915b5050505050908060030154908060040154905085565b60015481565b60045481565b828054600181600116156101000203166002900490600052602060002090601f016020900481019282601f106147eb57805160ff1916838001178555614819565b82800160010185558215614819579182015b828111156148185782518255916020019190600101906147fd565b5b50905061482691906148aa565b5090565b828054600181600116156101000203166002900490600052602060002090601f016020900481019282601f1061486b57805160ff1916838001178555614899565b82800160010185558215614899579182015b8281111561489857825182559160200191906001019061487d565b5b5090506148a691906148aa565b5090565b6148cc91905b808211156148c85760008160009055506001016148b0565b5090565b9056fea165627a7a723058205b60caca70ebf7c2d802beb5bc03ea0b3407156e597d40402970105b47af10f90029",
  "source": "pragma solidity ^ 0.5.0;\r\ncontract charity {\r\n\r\n  uint public charity_count = 0;\r\n\r\n\r\n  uint public org_count = 0;\r\n\r\n  struct charity_structre {\r\n    string name;\r\n    string description;\r\n    string bankAccount;\r\n    string bankName;\r\n    uint id;\r\n    bytes32 hash;\r\n    string address_of_charity;\r\n    string  ether_coins;\r\n\r\n\r\n  }\r\n\r\n  struct personOrOrganisation_structure {\r\n\r\n    string name;\r\n    string bankAccount;\r\n    string bankName;\r\n    uint id;\r\n    bytes32 hash;\r\n    string address_of_organisation;\r\n    string ether_coins;\r\n\r\n\r\n\r\n  }\r\n\r\n  constructor() public {\r\n\r\n      createCharity(\"anand_charity\", \"welcome to anand's charity, this is a default charity as I created this web page\",\"bankacc\",\"bankname\",\"0xCA35b7d915458EF540aDe6068dFe2F44E8fa733c\",\"0000\");\r\n\r\n      createOrganisation(\"anand_organisation\",\"bank account\",\"bank name\",\"0xCA35b7d915458EF540aDe6068dFe2F44E8fa733c\",\"0000\");\r\n\r\n      createTransaction(\"0x9E4Fe77bbA33b9a8597e65F88AC40D85b45D2D5E\",\"0x0863b46e51b958E9eFf366CcDc1E8f1e50915c85\",\"1\");\r\n\r\n      blockchain_function();\r\n  }\r\n\r\n  mapping(uint => charity_structre) public charitys;\r\n\r\n\r\n  mapping(uint => personOrOrganisation_structure) public org;\r\n\r\n  struct transactions {\r\n\r\n    string address_of_charity;\r\n    string address_of_organisation;\r\n    string amount_sent;\r\n    uint id;\r\n    bytes32 transaction_hash;\r\n\r\n  }\r\n\r\n  uint public transaction_count = 0;\r\n\r\n  mapping(uint => transactions) public transaction_dict;\r\n\r\n\r\n  uint public blockchain_count = 0;\r\n\r\n  struct blockchain_structure {\r\n\r\n      uint nonce;\r\n      bytes data;\r\n      bytes32 transaction_hash_add;\r\n      uint blockNumber;\r\n      bytes32 hash;\r\n      bytes32 previous_hash;\r\n  }\r\n\r\n  mapping(uint => blockchain_structure) public Blockchain;\r\n\r\n  bytes32 previousHash;\r\n\r\n  function createCharity(string memory _name, string memory _description, string memory _bankacc, string memory _bankname, string memory _address, string memory _ether_coins) public returns(uint){\r\n\r\n      charity_count++;\r\n      bytes memory name_byte = bytes(_name);\r\n      bytes memory description_byte = bytes(_description);\r\n      bytes memory bankacc_byte = bytes(_bankacc);\r\n      bytes memory bankname_byte = bytes(_bankname);\r\n      bytes memory address_byte = bytes(_address);\r\n      string memory lengthabc = new string(name_byte.length + description_byte.length + bankacc_byte.length + bankname_byte.length + address_byte.length);\r\n      bytes memory hash = bytes(lengthabc);\r\n      uint k = 0;\r\n      for(uint i =0;i < name_byte.length; i++){\r\n          hash[k] = name_byte[i];\r\n          k++;\r\n      }\r\n      for(uint i = 0;i < description_byte.length;i++){\r\n          hash[k] = description_byte[i];\r\n          k++;\r\n      }\r\n      for(uint i = 0;i < bankacc_byte.length;i++){\r\n          hash[k] = bankacc_byte[i];\r\n          k++;\r\n      }\r\n      for(uint i = 0;i < bankname_byte.length;i++){\r\n          hash[k] = bankname_byte[i];\r\n          k++;\r\n      }\r\n\r\n      for(uint i = 0;i < address_byte.length; i++ ){\r\n\r\n          hash[k] = address_byte[i];\r\n          k++;\r\n      }\r\n\r\n\r\n      bytes32 hash_address = keccak256(hash);\r\n      charitys[charity_count].name = _name;\r\n      charitys[charity_count].description = _description;\r\n      charitys[charity_count].bankAccount = _bankacc;\r\n      charitys[charity_count].bankName = _bankname;\r\n      charitys[charity_count].id = charity_count;\r\n      charitys[charity_count].hash = hash_address;\r\n      charitys[charity_count].address_of_charity = _address;\r\n      charitys[charity_count].ether_coins = _ether_coins;\r\n      //emit charityCreated(_name,_description,_bankacc,_bankname,charity_count,hash_address,_address);\r\n\r\n      return(charity_count);\r\n\r\n\r\n  }\r\n\r\n\r\n  function createOrganisation(string memory _name, string memory _bankacc, string memory _bankname, string memory _address, string memory _ether_coins) public returns(uint){\r\n\r\n    org_count ++;\r\n\r\n    bytes memory name_byte = bytes(_name);\r\n    bytes memory acc_byte = bytes(_bankacc);\r\n    bytes memory bankname_byte = bytes(_bankname);\r\n    bytes memory address_byte = bytes(_address);\r\n    string memory lengthabc = new string(name_byte.length + acc_byte.length + bankname_byte.length + address_byte.length );\r\n    bytes memory hash = bytes(lengthabc);\r\n\r\n    uint k = 0;\r\n\r\n    for(uint i = 0; i < name_byte.length;i++) {\r\n\r\n      hash[k] = name_byte[i];\r\n      k++;\r\n    }\r\n\r\n    for(uint i = 0; i < acc_byte.length; i++){\r\n\r\n      hash[k] = acc_byte[i];\r\n      k++;\r\n\r\n    }\r\n\r\n\r\n    for(uint i = 0; i < bankname_byte.length; i++) {\r\n\r\n      hash[k] = bankname_byte[i];\r\n      k++;\r\n    }\r\n\r\n\r\n    for(uint i = 0;i < address_byte.length; i++) {\r\n\r\n      hash[k] = address_byte[i];\r\n      k++;\r\n\r\n    }\r\n    bytes32 hash_address = keccak256(hash);\r\n\r\n    org[org_count].name = _name;\r\n    org[org_count].bankAccount = _bankacc;\r\n    org[org_count].bankName = _bankname;\r\n    org[org_count].id = org_count;\r\n    org[org_count].hash = hash_address;\r\n    org[org_count].address_of_organisation = _address;\r\n    org[org_count].ether_coins = _ether_coins;\r\n    return org_count;\r\n\r\n\r\n  }\r\n\r\nfunction createTransaction(string memory add_of_charity,string memory add_of_org,string memory amount) public {\r\n\r\n    transaction_count++;\r\n\r\n\r\n\r\n    bytes memory _address_of_charity = bytes(add_of_charity);\r\n    bytes memory _address_of_organisation = bytes(add_of_org);\r\n    bytes memory _amount = bytes(amount);\r\n\r\n    string memory length_abc = new string(_address_of_charity.length + _address_of_organisation.length + _amount.length);\r\n    bytes memory hash = bytes(length_abc);\r\n\r\n    uint k = 0;\r\n    for(uint i = 0; i < _address_of_charity.length; i++) {\r\n\r\n      hash[k++] = _address_of_charity[i];\r\n\r\n    }\r\n\r\n    for(uint i = 0; i < _address_of_organisation.length; i++) {\r\n\r\n      hash[k++] = _address_of_organisation[i];\r\n\r\n    }\r\n\r\n    for(uint i = 0; i < _amount.length; i++) {\r\n\r\n      hash[k++] = _amount[i];\r\n\r\n    }\r\n\r\n    bytes32 hash_address = keccak256(hash);\r\n    transaction_dict[transaction_count].address_of_charity = add_of_charity;\r\n    transaction_dict[transaction_count].address_of_organisation = add_of_org;\r\n    transaction_dict[transaction_count].amount_sent = amount;\r\n    transaction_dict[transaction_count].id = transaction_count;\r\n    transaction_dict[transaction_count].transaction_hash = hash_address;\r\n\r\n\r\n\r\n}\r\n/*\r\nfunction substring(string str, uint startIndex, uint endIndex) public returns (string) {\r\n    bytes memory strBytes = bytes(str);\r\n    bytes memory result = new bytes(endIndex-startIndex);\r\n    for(uint i = startIndex; i < endIndex; i++) {\r\n        result[i-startIndex] = strBytes[i];\r\n    }\r\n    return string(result);\r\n}\r\n*/\r\nfunction blockchain_function() public {\r\n\r\n\r\n\r\n    blockchain_count++;\r\n    uint len = 0;\r\n    for(uint i = 1;i<=charity_count;i++){\r\n        bytes memory name_charity = bytes(charitys[i].name);\r\n        bytes memory description = bytes(charitys[i].description);\r\n        bytes memory bankacc = bytes(charitys[i].bankAccount);\r\n        bytes memory bankname = bytes(charitys[i].bankName);\r\n        bytes memory add_of_charity_byte = bytes(charitys[i].address_of_charity);\r\n        bytes memory amount_byte = bytes(charitys[i].ether_coins);\r\n        len += name_charity.length + description.length + bankacc.length + bankname.length + add_of_charity_byte.length + amount_byte.length;\r\n    }\r\n    for(uint i =1;i<=org_count;i++){\r\n        bytes memory name_org = bytes(org[i].name);\r\n        bytes memory bankacc_org = bytes(org[i].bankAccount);\r\n        bytes memory bankname_org = bytes(org[i].bankName);\r\n        bytes memory address_of_organisation_byte = bytes(org[i].address_of_organisation);\r\n        bytes memory ether_coins_byte = bytes(org[i].ether_coins);\r\n        len += name_org.length + bankacc_org.length + bankname_org.length + address_of_organisation_byte.length + ether_coins_byte.length;\r\n    }\r\n    string memory lengthabcd = new string(len);\r\n\r\n    uint nonceValue = 0;\r\n    bytes memory dataString = bytes(lengthabcd) ;\r\n    bytes32 hash_addressNew;\r\n\r\n    uint j = 0;\r\n\r\n    for(uint i = 1;i <= charity_count; i++){\r\n      bytes memory name_charity = bytes(charitys[i].name);\r\n      for(uint m=0;m<name_charity.length;m++){\r\n        dataString[j++] = name_charity[m];\r\n      }\r\n\r\n      bytes memory description = bytes(charitys[i].description);\r\n      for(uint m=0;m<description.length;m++){\r\n        dataString[j++] = description[m];\r\n      }\r\n\r\n      bytes memory bankacc = bytes(charitys[i].bankAccount);\r\n      for(uint m=0;m<bankacc.length;m++){\r\n        dataString[j++] = bankacc[m];\r\n      }\r\n\r\n      bytes memory bankname = bytes(charitys[i].bankName);\r\n      for(uint m=0;m<bankname.length;m++){\r\n        dataString[j++] = bankname[m];\r\n      }\r\n\r\n      bytes memory add_of_charity_byte = bytes(charitys[i].address_of_charity);\r\n      for(uint m=0;m<add_of_charity_byte.length;m++){\r\n        dataString[j++] = add_of_charity_byte[m];\r\n      }\r\n\r\n\r\n      bytes memory amount_byte = bytes(charitys[i].ether_coins);\r\n      for(uint m=0;m<amount_byte.length;m++){\r\n        dataString[j++] = amount_byte[m];\r\n      }\r\n      }\r\n\r\n    for(uint i = 1;i <= org_count; i++){\r\n\r\n\r\n      bytes memory name_org = bytes(org[i].name);\r\n      for(uint m=0;m<name_org.length;m++){\r\n        dataString[j++] = name_org[m];\r\n      }\r\n\r\n      bytes memory bankacc_org = bytes(org[i].bankAccount);\r\n      for(uint m=0;m<bankacc_org.length;m++){\r\n        dataString[j++] = bankacc_org[m];\r\n      }\r\n\r\n      bytes memory bankname_org = bytes(org[i].bankName);\r\n      for(uint m=0;m<bankname_org.length;m++){\r\n        dataString[j++] = bankname_org[m];\r\n      }\r\n\r\n      bytes memory address_of_organisation_byte = bytes(org[i].address_of_organisation);\r\n      for(uint m=0;m<address_of_organisation_byte.length;m++){\r\n        dataString[j++] = address_of_organisation_byte[m];\r\n      }\r\n\r\n      bytes memory ether_coins_byte = bytes(org[i].ether_coins);\r\n      for(uint m=0;m<ether_coins_byte.length;m++){\r\n        dataString[j++] = ether_coins_byte[m];\r\n      }\r\n\r\n    }\r\nuint another_len = 0;\r\nbytes memory temp;\r\nbytes memory temp2;\r\n    for(uint i = 1;i<=transaction_count;i++){\r\n      if(i==transaction_count){\r\n          temp = abi.encode(transaction_dict[i].transaction_hash);\r\n          another_len += temp.length;\r\n      }\r\n      else {\r\n          uint z = i+1;\r\n          temp2 = abi.encode(transaction_dict[i].transaction_hash,transaction_dict[z].transaction_hash);\r\n          another_len += temp2.length;\r\n      }\r\n    }\r\n\r\n    string memory something = new string(another_len);\r\n\r\n    bytes memory hash_total = bytes(something);\r\n    uint l = 0;\r\n    for(uint i = 1; i<=transaction_count;i++) {\r\n\r\n       if(i==transaction_count){\r\n          temp = abi.encode(transaction_dict[i].transaction_hash);\r\n          for(uint m=0;m<temp.length;m++){\r\n            hash_total[l++] = temp[m];\r\n          }\r\n       }\r\n       else {\r\n       uint g = i+1;\r\n        temp2 = abi.encode(transaction_dict[i].transaction_hash,transaction_dict[g].transaction_hash);\r\n        for(uint m=0;m<temp2.length;m++){\r\n          hash_total[l++] = temp2[m];\r\n        }\r\n        i++;\r\n       }\r\n\r\n    }\r\n\r\n\r\n    bytes32 transaction_hash_address = keccak256(hash_total);\r\n\r\n//for hash calculation....\r\n\r\n  string memory lengthabc = new string(dataString.length);\r\n  bytes memory hashNew = bytes(lengthabc);\r\n  uint k =0;\r\n  for(uint i = 0;i<dataString.length;i++){\r\n    hashNew[k++] = dataString[i];\r\n  }\r\n  hash_addressNew = keccak256(hashNew);\r\n\r\n\r\n    Blockchain[blockchain_count].blockNumber = blockchain_count;\r\n    Blockchain[blockchain_count].data = dataString;\r\n    Blockchain[blockchain_count].hash = hash_addressNew;\r\n    Blockchain[blockchain_count].previous_hash = previousHash;\r\n    Blockchain[blockchain_count].nonce = nonceValue;\r\n    Blockchain[blockchain_count].transaction_hash_add = transaction_hash_address;\r\n    previousHash = hash_addressNew;\r\n    }\r\n\r\n}\r\n",
  "sourcePath": "C:\\Users\\maazz\\OneDrive\\Desktop\\blockchain-miniproj\\contracts\\charity.sol",
  "compiler": {
    "name": "solc",
    "version": "0.5.0+commit.1d4f565a.Emscripten.clang"
  },
  "schemaVersion": "3.4.16",
  "updatedAt": "2025-03-21T08:28:52.491Z",
  "networkType": "ethereum",
  "devdoc": {
    "methods": {}
  },
  "userdoc": {
    "methods": {}
  }
}